:020000040800F2
:1000000018050020AD0100089F150008E710000842
:100010009D150008DD02000891170008000000008F
:10002000000000000000000000000000ED160008C5
:10003000DF02000800000000A1150008EF1600080C
:10004000C7010008C7010008C7010008C701000870
:10005000C7010008C7010008C7010008C701000860
:10006000C7010008C7010008C7010008C701000850
:10007000C7010008C7010008C7010008C701000840
:10008000C7010008C7010008C70100080000000000
:10009000000000000000000000000000C701000890
:1000A000C7010008C7010008C7010008C701000810
:1000B000C7010008C7010008C7010008C701000800
:1000C000C7010008C7010008C7010008C7010008F0
:1000D000C7010008C7010008C701000800000000B0
:1000E000E1020008C7010008C70100080000000085
:1000F000000000000000000000000000C701000830
:1001000000000000C7010008C7010008C70100087F
:1001100000000000000000000000000000000000DF
:10012000C7010008C7010008C7010008C70100088F
:10013000C7010008000000000000000000000000EF
:10014000000000000000000000000000C7010008DF
:10015000C7010008C7010008C7010008C70100085F
:10016000C7010008C70100080000000000000000EF
:10017000000000000000000000000000000000007F
:1001800000000000C701000800000000000000009F
:10019000C7010008C7010008DFF80CD000F08CF898
:1001A00000480047E117000818050020064880476E
:1001B00006480047FEE7FEE7FEE7FEE7FEE7FEE74C
:1001C000FEE7FEE7FEE7FEE7751700089901000865
:1001D0002DE9F05F0546002092469B46884606467C
:1001E000814640241BE0284641464746224600F00F
:1001F00053F853465A46C01A914110D31146184637
:10020000224600F03AF82D1A67EB01084F462246C5
:100210000120002100F031F817EB00094E41201EAB
:10022000A4F10104DFDC484631462A464346BDE8D6
:10023000F09F40EA01039B0703D009E008C9121FA1
:1002400008C0042AFAD203E011F8013B00F8013B90
:10025000521EF9D27047D2B201E000F8012B491EBC
:10026000FBD270470022F6E710B513460A46044653
:100270001946FFF7F0FF204610BD202A04DB203A84
:1002800000FA02F1002070479140C2F1200320FAE9
:1002900003F3194390407047202A04DB203A21FAE7
:1002A00002F00021704721FA02F3D040C2F120028F
:1002B0009140084319467047064C074D06E0E06838
:1002C00040F0010394E8070098471034AC42F6D39D
:1002D000FFF766FFAC180008CC180008FEE770476F
:1002E0004FF4005000F020B870B5044600F0F8F864
:1002F0000546601C02D004480078044400F0F0F881
:10030000401BA042FAD370BD040000200549898A31
:10031000814206D103492C31C87A401CC87201F0D1
:1003200057BA70476C000020044910B50A680242B1
:1003300002D00860FFF7EAFF10BD0000143C014046
:100340002DE9F84F00224FF0010803254FF00F0E62
:100350000B6808FA02F42340A34271D14E68012EC3
:1003600005D0022E03D0112E01D0122E15D1866891
:10037000570005FA07FC26EA0C06D1F80CC00CFA67
:1003800007FC4CEA060CC0F808C04668A6430C7986
:10039000C4F30014944034434460C668570005FA1F
:1003A00007FC8C6826EA0C06BC403443C4604C68E9
:1003B000022C01D0122C13D1D40800EB8404A346E4
:1003C000D4F8209054074FEAD46A0EFA0AF629EAC4
:1003D00006090E6906FA0AF646EA0906CBF8206015
:1003E00004680E7924EA0C0406F00306BE40264396
:1003F00006604C68E40056D52E4C266846F48046CC
:100400002660246822F0030604F4804400942A4CF9
:100410003444A446D4F808489607370F0EFA07F676
:10042000B443264EB04201D1002615E0244EB0421E
:1004300001D1012610E0234EB04202D102260BE08A
:1004400031E0214EB04201D1032605E01F4EB042FB
:1004500001D1042600E00726BE402643CCF80868F8
:100460001B4E34684F689C43FF0300D51C43346027
:10047000174E361D34684F689C43BF0300D51C439C
:100480003460134E083634684F689C43FF0200D531
:100490001C4334600E4E0C3634684F689C43BF02D8
:1004A00000D51C433460521C102AFFF451AFBDE844
:1004B000F88F000044380240003001400000024044
:1004C0000004024000080240000C024000100240FC
:1004D000003C01400AB1816170470904FBE700005C
:1004E00001488068704700000400002002488168CD
:1004F0000278114481607047040000200B4810B559
:10050000016841F400710160016841F4806101609B
:10051000016841F480710160032000F06FF8002051
:1005200000F006F800F024F8002010BD003C024066
:1005300070B50D4D04464FF47A712878B1FBF0F098
:100540000A490968B1FBF0F000F0B9FD48B9102C78
:1005500007D200222146501E00F030F800206C60C7
:1005600070BD012070BD00000400002010000020BC
:100570000A4808B5016841F480410160006800F450
:10058000804000900548001F016841F080510160E3
:10059000006800F08050009008BD00004438024020
:1005A000002809DB00F01F02012191404009800072
:1005B00000F1E020C0F8001170470000F0B40E4BCD
:1005C0001B680C46C3F30223C3F10705042D00D9B1
:1005D0000425191D072901D2002300E0DB1E012696
:1005E00006FA05F1491E214099409E40761E1640AC
:1005F0003143F0BC01F0CDB80CED00E0064900F04D
:10060000070208684FF6FF03184040EA0220034A39
:1006100010430860704700000CED00E00000FA0590
:100620002DE9F0470E46050065D0DFF81481D8F8B3
:100630000000F7B200F00F00B04207D288F8007057
:10064000D8F8000000F00F00B04254D128683D4CAB
:10065000810712D5400703D5206840F4E0502060A0
:100660002878000703D5206840F4604020602068A7
:10067000A96820F0F000084320602878C0072DD03A
:10068000304968680839012812D0022813D003289D
:1006900011D00968890700292DDA216821F00301AA
:1006A00001432160FFF71CFF814641F2883A0EE0CA
:1006B00009688903EFE709688901ECE7FFF710FF94
:1006C000A0EB0901514502D90320BDE8F08720685D
:1006D000696800F00C00B0EB810FEFD1D8F8001082
:1006E000404601F00F01B14207D90770006800F0E1
:1006F0000F00B04201D00120E7E72878400705D578
:100700002068E96820F4E05008432060287800075A
:1007100006D52068296920F4604040EAC1002060C5
:1007200000F018F82168084AC1F30311515CC84071
:100730000649086006480068FFF7FAFE0020C4E793
:10074000003C0240083802409C18000810000020BD
:1007500008000020154810B5006810F00C0214487D
:1007600013D01449042A0FD0082A0ED10F4C241F8D
:100770002268236802F03F025B0207D52068C0F3BD
:100780008810A0FB010106E0084610BD2168C1F3F6
:100790008811A1FB00010023FFF71AFD2168C1F3B6
:1007A0000141491C4900B0FBF1F010BD083802407E
:1007B0000024F40040787D012DE9F84F04006ED04C
:1007C0002078DFF83C93C007A9F104054AD009F16D
:1007D00004000168C1F38101012908D00068C0F359
:1007E000810002280AD1D9F80000400206D5286805
:1007F000800337D560680028E1D033E06068B0F549
:10080000803F10D0B0F5A02F286810D020F48030A1
:100810002860286820F4802028606068A8B1FFF76D
:100820005FFE06460DE0286840F48030F4E740F4AF
:1008300080202860F7E700BFFFF752FE801B642886
:1008400073D828688003F7D50CE0FFF749FE064609
:1008500005E000BFFFF744FE801B6428F0D828683D
:100860008003F7D42078DFF89C8280074FF0000ADD
:100870003ED5A348001D016811F00C0F08D0006898
:10088000C0F3810002280BD1D9F80000400207D440
:100890002868800716D5E068012800D112E02BE116
:1008A000E068B8B10120C8F80000FFF719FE06465D
:1008B00005E000BFFFF714FE801B0228C0D828689F
:1008C0008007F7D52868216920F0F80040EAC100C8
:1008D00028600DE0C8F800A0FFF702FE064604E01D
:1008E000FFF7FEFD801B02281FD828688007F7D479
:1008F0002078000722D5824E83486169703671B135
:1009000001210160FFF7ECFD074604E0FFF7E8FD79
:10091000C01B022809D830688007F7D50EE0C0F860
:1009200000A0FFF7DDFD074605E082E0FFF7D8FDF8
:10093000C01B02287DD830688007F7D42078400794
:1009400068D5DFF8BCB100270BF13C0BDBF80000E9
:10095000C0000BD4DBF8001041F08051CBF8001040
:10096000DBF80000012700F080500090674E3068EF
:10097000C00510D4306840F480703060FFF7B0FDDF
:10098000009005E0FFF7ACFD0099401A022850D80E
:100990003068C005F6D55A4EA0686C3601280FD0D5
:1009A0000528306810D020F001003060306820F059
:1009B00004003060A068B8B1FFF792FD00900FE02E
:1009C000306840F00100F4E740F004003060F7E7E1
:1009D000FFF786FD0099411A41F28830814266D8BE
:1009E00030688007F4D50EE0FFF77AFD009007E04D
:1009F000FFF776FD0099411A41F28830814256D8BE
:100A000030688007F4D42FB1DBF8001021F080515A
:100A1000CBF80010A069C8B33949091D0968C1F3B2
:100A2000810102294AD00228504607D0C8F8600048
:100A300000E03CE0FFF754FD04463BE04746C8F8C1
:100A40006000FFF74DFD064605E000BFFFF748FDDB
:100A5000801B02282BD828688001F7D4D4E907012D
:100A60000843A16A2A4A490802EB0141626A41EA45
:100A70008211084394F82C1040EA0161C9F8001073
:100A800001203866FFF72CFD044606E036E000BF83
:100A9000FFF726FD001B022809D828688001F7D53A
:100AA0002CE000BFFFF71CFD001B022802D9032029
:100AB000BDE8F88F28688001F4D41FE00128F7D042
:100AC000D9F80000E26900F48001914214D1226A51
:100AD00000F03F0191420FD147F6C071626A0140B8
:100AE000914209D1A26A00F44031914204D1E16AF5
:100AF00000F07060884201D00120D9E70020D7E7DC
:100B00000438024000004742800E47420070004017
:100B10000000FFFF90F85100704770B5040005D049
:100B20000025A56294F8510010B106E0012070BDC7
:100B300084F85050204600F031F8022084F851002B
:100B40002068016821F040010160D4E901010843F7
:100B5000D4E903121143084361690843218B01F46E
:100B600000710843E1690843216A0843A16A084308
:100B700021680860A069042101EA1040616A084305
:100B8000216848602068C16921F40061C161656520
:100B9000012084F85100002070BD000070B586B0BF
:100BA000044614216846FFF75DFB1D492068884212
:100BB00034D11C480024016841F400410160006800
:100BC00000F40040059017481038016841F0020118
:100BD0000160016801F002010591016841F0040122
:100BE00001600068022500F0040005904FF4805079
:100BF000CDE90005032602940720CDE9036069468C
:100C00000948FFF79DFBF002CDE90005029406209C
:100C1000CDE9036069460548FFF792FB06B070BD59
:100C2000003C0040403802400004024000080240FE
:100C30002DE9F84F044640680025984616460F46B1
:100C40004FF0040BB0F5827F01D1A06888B194F811
:100C50005000012818D0012084F85000FFF740FC14
:100C6000814694F851004FF0000A01280ED0022569
:100C70007DE084F851B013460A462046CDF8008046
:100C800000F02CF9BDE8F88F0220FBE7002F6DD0B3
:100C9000002E6BD084F851B0C4F854A0A763A68787
:100CA000E687C4F830A0A4F834A0A4F836A0C4F8AD
:100CB00040A0C4F844A0A068B0F5004F04D120685B
:100CC000016821F48041016020680168490603D46D
:100CD000016841F040010160E068D8B139E0206866
:100CE0008168C90709D0007BA16B0870A06B401C0C
:100CF000A063E08F401EE0870CE0FFF7F1FBA0EB64
:100D00000901414503D3B8F1FF3F03D036E0B8F104
:100D1000000F33D0E08F0028E1D11DE0206881680A
:100D2000C90709D0C068A16B0880A06B801CA063B4
:100D3000E08F401EE0870CE0FFF7D2FBA0EB09013B
:100D4000414503D3B8F1FF3F03D017E0B8F1000FDE
:100D500014D0E08F0028E1D14A464146204600F0F9
:100D600020FC08B120206065606D00B101250120E4
:100D700084F8510084F850A0284683E70325F6E75D
:100D80002DE9F84F044690F8500000271D461646FE
:100D9000894601280DD04FF0010B84F850B0FFF7C1
:100DA0009FFB804694F85100BA46012804D00227E0
:100DB0008EE00220BDE8F88FB9F1000F7DD0002E43
:100DC0007BD0032084F85100C4F854A0C4F83090BC
:100DD000A686E686C4F838A0A4F83CA0A4F83EA0F5
:100DE000C4F844A0C4F840A0A068B0F5004F04D1F6
:100DF0002068016841F4804101602068016849066B
:100E000003D4016841F040010160E068B0F5006F73
:100E1000606803D030B3012E24D040E008B1012E29
:100E20001CD1206B21680088C86006E020688168BA
:100E3000890709D5216B0988C160206B801C20635C
:100E4000E08E401EE08609E0FFF74AFBA0EB0800B9
:100E5000A84202D3681C01D031E07DB3E08E0028A7
:100E6000E4D11FE0206B21680078087306E0206859
:100E70008168890709D5216B09780173206B401CB3
:100E80002063E08E401EE08609E0FFF729FBA0EB1F
:100E90000800A84202D3681C01D010E075B1E08EB2
:100EA0000028E4D142462946204600F0A9FB08B1BB
:100EB00020206065A06820B107E008E0FFE7032775
:100EC00006E02068C16880680090606D00B101276D
:100ED00084F851B084F850A038466BE72DE9F84FFC
:100EE000044690F8500000270A9E1D4692468B4605
:100EF0004FF0010901280ED0012084F85000FFF7BF
:100F0000EFFA804694F85100616801280CD0B1F5E1
:100F1000827F07D102E00220BDE8F88FA16809B9FD
:100F2000042801D00227C2E0BBF1000F27D0BAF19C
:100F3000000F24D01DB394F85100042802D00520DE
:100F400084F8510000206065C4F838A0E587A587C3
:100F5000C4F830B0E586A586206460642068016826
:100F6000490603D4016841F040010160E068B0F532
:100F7000006F606805D0E8B3012D46D07FE00127FF
:100F800095E008B1012D39D1206B21680088C86037
:100F9000206B801C2063E08E401EE0862EE02068DF
:100FA000816889070FD5E18E69B1B9F1010F0AD1C6
:100FB000216B0988C160206B801C2063E08E401E7D
:100FC000E0864FF0000920688168C9070CD0E18FE6
:100FD00051B1C068A16B0880A06B801CA063E08F3A
:100FE000401EE0874FF00109FFF77AFAA0EB0800F6
:100FF000B04200E009E001D3701C50D1E08E00281F
:10100000CDD1E08F0028CAD13FE0206B2168007865
:101010000873206B401C2063E08E401EE0862EE0AB
:101020002068816889070FD5E18E69B1B9F1010F98
:101030000AD1216B09780173206B401C2063E08E7C
:10104000401EE0864FF0000920688168C9070CD077
:10105000E18F51B1C068A16B0870A06B401CA06308
:10106000E08F401EE0874FF00109FFF739FAA0EB4F
:101070000800B04202D3701C01D010E07EB1E08EB7
:101080000028CDD1E08F0028CAD142463146204603
:1010900000F0B6FA28B101272020606507E0032799
:1010A00005E0A06818B92068C16880680090012038
:1010B00084F85100002084F8500038462CE710B521
:1010C000401EB0F1807F01D3012010BD4FF0E0241D
:1010D00060610F21601700F05CFB0020A061072019
:1010E0002061002010BDFEE770B50C4605460121C9
:1010F00000F09EF8024644B1012C0BD0032C0FD017
:10110000052C13D0062C17D01BE0002002F0F802AB
:10111000E86116E0012002F0F802521CE86110E0DC
:10112000032002F0F802D21CE8610AE0052002F078
:10113000F802521DE86104E0062002F0F802921D58
:10114000E8610121284600F077F9BDE870400A20E7
:10115000FFF7CAB870B504460021FFF7C5FF0A20A3
:10116000FFF7C2F80121204600F062F805460A2088
:10117000FFF7BAF845F080020121204600F05CF943
:101180006420FFF7B1F82046216A00F0DCF894F8FB
:101190002A10204600F016F994F82B10204600F093
:1011A000F2F823220C21204600F046F9204600F0F8
:1011B00030F994F82410204600F00EF9FF221F2188
:1011C000204600F039F994F8250094F82610000123
:1011D00000EB4100C2B21D21204600F02DF9208D08
:1011E0002021020A204600F027F994F82820212126
:1011F000204600F021F94021204600F019F8002295
:101200004021204600F018F901212046FFF76CFF2D
:101210000120E0610A20FFF767F84221204600F034
:1012200007F8122802D04FF4CA7070BDC82070BDF4
:101230000EB501F07F018DF8081001210A460091DA
:1012400001AB02A900F003F89DF804000EBD2DE9E2
:10125000F0470E461546044681889846DDF82090F2
:1012600000680022FFF736F94FF4FA673B462A463A
:101270003146A069FFF784FDA069FFF74BFC012808
:10128000FAD13B464A464146A069FFF7D1FCA06926
:10129000FFF740FC0128FAD1A1882068BDE8F0479B
:1012A0000122FFF717B92DE9F04107460E4600204D
:1012B0001446014601E03154401CA042FBDB0121F1
:1012C0003846FFF711FF12213846FFF7B1FF4006FD
:1012D0001FD5FF221221384600F0AEF81321384600
:1012E000FFF7A6FF054610213846FFF7A1FF02468B
:1012F0000D21384600F0A0F8AC4200D2254600246B
:1013000005E000213846FFF793FF3055641CAC42DE
:10131000F7DB3846BDE8F0410521FFF7E5BE10B523
:101320000446818980680022FFF7D4F80120FEF787
:10133000DBFFA1890122A068FFF7CCF8BDE81040CF
:101340006420FEF7D1BF70B50546C8044411C4F34C
:1013500007420621284600F06FF80520FEF7C4FF7B
:10136000C4F307220721284600F066F80520FEF79F
:10137000BBFFE2B20821284600F05EF8BDE87040ED
:101380000520FEF7B1BF10B52D2901D22D2105E0B2
:10139000F02901D9F02106E0782904D805222D3959
:1013A00091FBF2F103E00A221E31B1FBF2F1C9B266
:1013B0002031CAB20B2100F03FF8BDE810400A20EE
:1013C000FEF792BF10B50A46092100F035F8BDE8D6
:1013D00010400A20FEF788BF70B50C4606460C295F
:1013E00001DD0C2402E0072C00DA07241E21FFF7A0
:1013F0001FFF05460A20FEF777FF64F31F15EAB2C8
:101400001E21304600F018F8BDE870400A20FEF7B3
:101410006BBF10B504461E21FFF70AFF40F007021C
:101420001E21204600F008F8BDE810400A20FEF713
:101430005BBF0521FFF758BE0EB541F080018DF866
:10144000081001218DF804200A46009101AB02A981
:1014500000F001F80EBD2DE9F0470E461546044692
:1014600081889846DDF8209000680022FFF732F866
:101470004FF4FA673B462A463146A069FFF780FCE5
:10148000A069FFF747FB0128FAD13B464A4641468F
:10149000A069FFF775FCA069FFF73CFB0128FAD1B2
:1014A000A1882068BDE8F0470122FFF713B80000CB
:1014B00070B586B014216846FEF7D4FE2748002494
:1014C000016841F080010160016801F0800105912F
:1014D000016841F010010160016801F010010591FF
:1014E000016841F002010160016801F0020105910B
:1014F000016841F001010160016801F001010591FD
:10150000016841F0040101600068154E00F004001C
:101510004FF440450590012229463046FEF7DAFF98
:101520004FF4005000900F48CDE901046946304661
:10153000FEF706FF01200095CDE90104694630461B
:101540000394FEF7FDFE002211462820FFF736F82F
:101550002820FFF725F806B070BD000030380240A3
:1015600000100240000011100B480A494FF40072AD
:1015700001604FF48271416000218160C1600161AE
:10158000C0E90512C1610162416281620A21C16242
:10159000FFF7C3BA003C004014000020FEE770478C
:1015A0007047F8B5044640684FF48273984221D1E1
:1015B000A0684FF48065B0F5004F01D0A8420AD171
:1015C0002068066826F0400606606068984211D1DF
:1015D000A068A8420ED000920B460022802120462F
:1015E00000F03AF8002804D0606D40F020006065FB
:1015F0000320F8BD00920B4600220121EFE7000016
:1016000038B504461248134B0068B0FBF3F04FF4B2
:101610007A73584300906068B0F5827F0DD10B4615
:10162000009200228021204600F016F870B1606D13
:1016300040F020006065032038BD009830B1401EA6
:10164000009020688068C0430006F6D5002038BDB1
:101650001000002000366E012DE9F0411D461746AE
:101660000E460446DDF8188008E0681C06D0FEF738
:1016700037FFA0EB0800A8420BD255B12068806864
:1016800036EA000030D00020B842EED10020BDE89C
:10169000F0812068416821F0E00141606068B0F5A8
:1016A000827F0BD1A068B0F5004F02D0B0F5806FFB
:1016B00004D12068016821F040010160A06AB0F502
:1016C000005F09D12068016821F4005101602068A1
:1016D000016841F400510160012084F851000020AC
:1016E00084F850000320D2E70120CDE77047FEF7D1
:1016F000FDBE000030B593B030216846FEF7B2FD64
:1017000014210CA8FEF7AEFD18480025016841F031
:1017100080510160006800F0805011901448016809
:1017200041F4404101600068022400F440401190FF
:101730000120039010200490009406940820CDE925
:1017400007506420CDE9090404200B906846FFF798
:1017500033F80CA90F2081E83100E002CDE90F0534
:1017600003210CA8FEF75CFF13B030BD40380240E7
:10177000007000400548016841F4700101600349B0
:101780004FF00060803908607047000088ED00E08D
:10179000FEE70907090E002804DB00F1E02080F8CD
:1017A0000014704700F00F0000F1E02080F8141DD5
:1017B000704702E008C8121F08C1002AFAD170471A
:1017C0007047002001E001C1121F002AFBD17047C1
:1017D00002490822A1F12C00FFF765BD9800002006
:1017E0008CB0FEF78BFEFFF785FFFFF761FEFFF77A
:1017F000BBFE684600F036F82C2269461648FEF714
:1018000018FD1549144858394FF4004281611349B5
:1018100002C020F8082B521040F8041C02804160DE
:101820005110018140F2B1114161072101764176E9
:1018300001218176FF2181777821C1770A21818377
:101840000548FFF76CFD0448FFF784FC0449088055
:101850000148FFF7EEFDFEE76C000020001002409B
:101860000000002000B58BB040F2B11108910721B3
:101870008DF824108DF8251001218DF82610FF21F8
:101880008DF82A1064218DF82B100821ADF828104E
:101890002C226946FEF7CDFC0BB000BD0000000015
:1018A000000000000102030406070809CC18000824
:1018B0000000002014000000B2170008E018000823
:1018C0001400002004050000C217000800000000FA
:1018D0000100000010000000000000000024F400DF
:040000050800019955
:00000001FF
